:100000000C9488090C94B0090C94B0090C94B009B4
:100010000C94B0090C94B0090C94B0090C94B0097C
:100020000C94B0090C94B0090C94CE140C943D15AA
:100030000C94B0090C94B0090C94B0090C94B0095C
:100040000C94B0090C94B0090C94B0090C94B0094C
:100050000C94B0090C94B0090C94B0090C946F176F
:100060000C94B0090C94B0090C94B0090C94B0092C
:100070000C94B0090C94B0090C94B0090C94B0091C
:100080000C94B0090C94B0090C94B0090C94B0090C
:100090000C94B0090C94B0090C94B0090C94B009FC
:1000A0000C94B0090C94B0090C94B009737461728B
:1000B0007320796F752067657421006D616B652C05
:1000C00020746865206D6F726500466577657220E3
:1000D0006D6F76656D656E747320796F7500006560
:1000E0007869742066726F6D207468652067616D31
:1000F000652E00427574746F6E20412069732075FF
:1001000073656420746F0073656C65637465642047
:10011000706172742E006172726F777320746F2039
:100120006368616E6765004220627574746F6E204B
:10013000616E642075736500546F20726F74617412
:10014000652070726573730073656C6563746564B4
:1001500020706172742E0072696768742C20627955
:1001600020726F746174696E6700736D616C6C6589
:1001700072207368617065206F6E2074686500621C
:1001800065206D61746368656420746F20746865B0
:100190000061207368617065207768696368207307
:1001A000686F756C640045616368206C6576656C8A
:1001B00020636F6E7461696E730000000000003E82
:1001C0005B4F5B3E3E6B4F6B3E1C3E7C3E1C183CC7
:1001D0007E3C181C577D571C1C5E7F5E1C00183C23
:1001E0001800FFE7C3E7FF0018241800FFE7DBE76C
:1001F000FF30483A060E2629792926407F05050753
:10020000407F05253F5A3CE73C5A7F3E1C1C0808AE
:100210001C1C3E7F14227F22145F5F005F5F060973
:100220007F017F006689956A606060606094A2FFCC
:10023000A29408047E040810207E201008082A1CBE
:1002400008081C2A08081E101010100C1E0C1E0C8A
:1002500030383E3830060E3E0E060000000000002A
:10026000005F00000007000700147F147F14242A99
:100270007F2A12231308646236495620500008076B
:100280000300001C2241000041221C002A1C7F1C8C
:100290002A08083E0808008070300008080808088E
:1002A000000060600020100804023E5149453E00F5
:1002B000427F400072494949462141494D33181453
:1002C000127F1027454545393C4A494931412111A2
:1002D00009073649494936464949291E0000140094
:1002E00000004034000000081422411414141414B7
:1002F000004122140802015909063E415D594E7C15
:100300001211127C7F494949363E414141227F41C9
:1003100041413E7F494949417F090909013E414127
:1003200051737F0808087F00417F41002040413F12
:10033000017F081422417F404040407F021C027F21
:100340007F0408107F3E4141413E7F090909063E76
:100350004151215E7F091929462649494932030145
:100360007F01033F4040403F1F2040201F3F403857
:10037000403F631408146303047804036159494D32
:1003800043007F4141410204081020004141417F68
:1003900004020102044040404040000307080020DE
:1003A000545478407F2844443838444444283844DE
:1003B00044287F385454541800087E090218A4A415
:1003C0009C787F0804047800447D40002040403D34
:1003D000007F1028440000417F40007C04780478AE
:1003E0007C080404783844444438FC182424181841
:1003F000242418FC7C08040408485454542404049D
:100400003F44243C4040207C1C2040201C3C403089
:10041000403C44281028444C9090907C4464544CB8
:100420004400083641000000770000004136080013
:1004300002010204023C2623263C1EA1A161123ABD
:100440004040207A3854545559215555794121540A
:10045000547841215554784020545579400C1E520F
:1004600072123955555559395454545939555454B3
:10047000580000457C410002457D420001457C401A
:10048000F0292429F0F0282528F07C545545002037
:1004900054547C547C0A097F4932494949323248D4
:1004A000484832324A4848303A4141217A3A42403B
:1004B0002078009DA0A07D39444444393D4040400F
:1004C0003D3C24FF2424487E4943662B2FFC2F2BE0
:1004D000FF0929F620C0887E090320545479410081
:1004E00000447D413048484A32384040227A007A00
:1004F0000A0A727D0D19317D2629292F28262929DE
:10050000292630484D4020380808080808080808FF
:10051000382F10C8ACBA2F102834FA00007B000026
:1005200008142A142222142A14089500220095AADD
:10053000005500AAAA55AA55AA000000FF001010F5
:1005400010FF00141414FF001010FF00FF1010F033
:1005500010F0141414FC001414F700FF0000FF0046
:10056000FF1414F404FC141417101F10101F101F94
:100570001414141F00101010F0000000001F1010C1
:1005800010101F10101010F010000000FF101010BD
:10059000101010101010FF10000000FF140000FFDA
:1005A00000FF00001F10170000FC04F414141710C3
:1005B000171414F404F40000FF00F71414141414B6
:1005C0001414F700F7141414171410101F101F142C
:1005D0001414F4141010F010F000001F101F00008D
:1005E000001F14000000FC140000F010F01010FFB9
:1005F00010FF141414FF141010101F00000000F05E
:1006000010FFFFFFFFFFF0F0F0F0F0FFFFFF000032
:10061000000000FFFF0F0F0F0F0F38444438447CD9
:100620002A2A3E147E02020606027E027E026355DC
:100630004941633844443C04407E201E2006027E2B
:10064000020299A5E7A5991C2A492A1C4C7201723D
:100650004C304A4D4D303048784830BC625A463DA7
:100660003E494949007E0101017E2A2A2A2A2A445C
:10067000445F444440514A444040444A5140000091
:10068000FF0103E080FF000008086B6B083612369C
:100690002436060F090F060000181800000010107D
:1006A000003040FF0101001F01011E00191D17123B
:1006B000003C3C3C3C0000000000080B0002020231
:1006C00000000904000001020200000524001001DE
:1006D0000524010101042402060524060001070582
:1006E000810310004009040100020A000000070510
:1006F00002024000000705830240000004030904D1
:1007000012010002EF020140412336800001010284
:10071000030141726475696E6F204C4C4300417255
:100720006475626F7900D5F08D14A1C881CFD9F1BD
:10073000AF2000A60191017F016A015701480138ED
:1007400001270116010701F300DF00DE00CA00BB2C
:1007500000AC000080C0FCFEFFC7C7C7C7FFFEFC9F
:10076000C08000007FFFFFFFFFFFE3E3FFFFFFFF0D
:10077000FF7F0001010101010000010100000101F2
:100780000101010000000000000000000101010162
:100790000100010100010101000101000000000051
:1007A000000000000005080400010103010101012F
:1007B0000101010102010100000000000000000031
:1007C0000001000301010101010101010001020119
:1007D0000100000000000000000006080402010102
:1007E00002010202010100000100010100000000FD
:1007F00000000000000002020101000201000101EE
:100800000100000102010000000000000000000AD9
:1008100010040101030301020303030302010303A4
:1008200001010000000000000000000303020301BA
:1008300003010301010103030103020000000000A2
:10084000000000000C140402020101020101030275
:10085000010103010103030000000000000000008B
:10086000010201030202020303010101010101036C
:100870000000000000000000000C12040102010250
:100880000101010201010102010201010102010154
:100890000102010201010202020101010101010143
:1008A000020201010101020101010201020102062D
:1008B0000503010301030101010101030103010318
:1008C000010101010103010301030301010103030C
:1008D0000103010101010103010103010101010102
:1008E000030303090C0501010102010102020201D7
:1008F00001020101010102020201010101020102E2
:1009000001010202010101010101020201010101D3
:100910000201020201010201090E050101010101AA
:1009200001020302010101010101010203020101AF
:1009300001010101010101010201020101010101A5
:10094000010101020101020103010101030C14056F
:10095000010101010103010101030103030301037B
:100960000101010301010101010103010103010171
:10097000030301030101010101010301030101015D
:100980000101091405030101010303010101030130
:10099000030103010103010301010103010101013D
:1009A0000301030103010301010103010303010327
:1009B000010101010101030A140501010101010303
:1009C000010101020303010202030101020101010D
:1009D0000101010103010101010101020103010102
:1009E0000201030101020103010101020B140501CF
:1009F00001020101010102010101030303010101DF
:100A000002010101010201010101020101010101D3
:100A100001010303010202010102030101010101BD
:100A200001070E0501010301010103030301010395
:100A3000000301010303030101010301010301019B
:100A40000301030301010103030003010103030187
:100A50000101010101030B10050201010101020165
:100A6000010101030303030301010101020101016B
:100A70000102010101030102010101010201010161
:100A80000103010301030203010201111805020120
:100A9000010101010303010101030303010101033A
:100AA000030101010101020101030303010201012C
:100AB000010103030301010101010103010201011D
:100AC000121C0501010101010000030000010103E6
:100AD0000101000003000001010101010001010109
:100AE00000000100010001010303000101010001F8
:100AF0000101010003121A050201010202020101B3
:100B000001010101030101010101010202020101D0
:100B100002010201010201010101010202030202BC
:100B2000010101020101010201010D140501010190
:100B300001010201030102010001000102010301A0
:100B40000201010101010101010100000101010196
:100B5000030102010101020103010101010202106E
:100B6000180501010101010301010103030303034E
:100B7000030301010103010101010103010301015B
:100B80000103030101010303010301010301010149
:100B9000010301010F160501010201010101030119
:100BA000010203020302010103010101010201012B
:100BB000030102030101020102030101020101011B
:100BC000010101010301010102111A0501010101E5
:100BD00001010202020101020303010102030301F8
:100BE00001010101010102010301010202010101F0
:100BF00002010301010301030101020101010810C7
:100C000005010303030103010201030101020101C4
:100C100003010201030103030301030101030301B3
:100C200003020103010301010102010302010303A5
:100C30000101031018050101010101010202020175
:100C4000010102010101010301010103030301018B
:100C5000020203010201030101010103010101017B
:100C60000101010101030102121905010101010144
:100C7000010202020101020302010102020201015A
:100C80000101010102010102010102010101020150
:100C9000020101030201010101020201010F140519
:100CA0000101010101010301030102030203020228
:100CB0000102010201010101010101020101010121
:100CC0000102010302030201030201010103020107
:100CD0000101151E050001010100000101010001D3
:100CE00000000001000101010000010101000101FB
:100CF00001010001010100010001000001010001EA
:100D0000000000000100010F1805010100010200B0
:100D100000000102000103010101010303030101BD
:100D200001010303030002030000000101010101AE
:100D30000201030301000101010101011923050161
:100D40000101010101030103010103030301020287
:100D50000302020202020202020301010202020174
:100D60000201030301020303010101030102020264
:100D7000011E280501010101010102010201020217
:100D8000030202010201020101010101010101024C
:100D9000010102010102020101020101010202033B
:100DA0000101020101010C14050001010100010013
:100DB0000100010101020101010001000100010126
:100DC0000100010201010101010100010000000117
:100DD00000010100010101000101000C14050101E5
:100DE00002010101020302010101020101010100EE
:100DF00001010000000000010201000102010101E7
:100E000001010100000002010001020100010301D3
:100E1000191E050201010102020101010202000086
:100E200000020200000002020202020202020002AC
:100E300002010102000002020100020201000002A0
:100E40000102010202161C0500010101000101025C
:100E50000101010201020101010201010001010180
:100E60000001010101020201010101010100020072
:100E700002010101010100010100101A0502010235
:100E8000010201030103010101000101010301034A
:100E90000102010201020101020303010101020139
:100EA0000301000201020103010201010101021616
:100EB0001E05010101000001010100000101030103
:100EC0000100000101010000010101000103000116
:100ED0000000010000010101010000010101010108
:100EE00001010101121905010101010101030303BF
:100EF00001020201020201030303010101010101D8
:100F000002010101010101030103010303020101C7
:100F1000020201010101030103151E050101010186
:100F200001020301030202010301020203010302A1
:100F30000101010101010302020303010101030197
:100F40000201020101010201010101030201161C5B
:100F50000500000200000001010100020101010280
:100F6000000101010000000200000100010000007A
:100F70000000010102000102010100000201020063
:100F80000000012028050201010301010201010303
:100F9000010101010103010102010103010102013B
:100FA0000102020103010101010301010201030128
:100FB00001010301010102011318050101010101F1
:100FC0000102020202030101010203030303010102
:100FD00001010101030101010201020103020103F8
:100FE00003020101010302010101010101141A05BB
:100FF00001010101010102030201010303030101D7
:1010000002030201010101010102030103010101C7
:1010100001030102020101010101010103010301B8
:101020000201151E05010203030101020101010174
:101030000202020101010102010103030201030195
:101040000102010103010102030102020201010286
:101050000301010201010119230501000000010241
:10106000010101020201010102020101010201006C
:101070000000010102010000020101020001020161
:101080000101010000010201000102011B21050311
:101090000101010301030103010102020201010335
:1010A0000103010301010103030203010101010323
:1010B0000301020203010103010301010103010114
:1010C000011D2305030303030301010101010100C5
:1010D00000000101010101010202020202010302FA
:1010E00001030102010102010303010102010101E7
:1010F0000300000100021B200501010201010101A2
:1011000002020103030102020103030101010103C1
:1011100001010203010101010201030103020101B6
:1011200001010301020101030101021E280503035D
:101130000101010302020101010200020101010299
:101140000203010101030302020103020301010181
:101150000101000302010102010101020303030175
:101160002328050100010001010000000101030323
:101170000301010202020101020102010101030057
:10118000000201010001010101010203020100034B
:1011900001010002022A34050102020201030102D8
:1011A000010303030003030301020103010202021E
:1011B000010201030203010201030101030302030F
:1011C000010102000302020201033A460540C0C0C9
:1011D000C04040781E1E786040C0C0C04000000083
:1011E000E17F6630101030667FE100000040E0E0F3
:1011F000E0E0E0F8FFFFFCE0E0E0E0E040000001BC
:10120000F3FF7F3F1F1F3F7FFFF30100000000F847
:10121000F8F818F8F8F8F818F8F8F00080D8D8D8E6
:10122000D8F8F8F00018FEFEFE1818E0F0F83818AC
:1012300018180000FFFFFF1818F8F8F00000000071
:101240000018FEFEFE181800FFFFFF1818F8F8F04F
:10125000E0F0F8F8D8D8F8F0E000000000003078AE
:10126000F8D8D8D8D80000FFFFFF1818F8F8F08099
:10127000D8D8D8D8F8F8F00000F0F0F01010F0F05E
:10128000E000E0E0F0F8D8D8F8F0E0000000000757
:1012900007070007070707000707070003070706F8
:1012A00006070707000003070706060103070706EE
:1012B00006060000070707000007070700000000F8
:1012C00000000307070606000707070000070707D7
:1012D00001030707060606070000000000000206DB
:1012E00006060607070100070707000007070703B0
:1012F0000707060607070700003F3F3F06060707E8
:101300000300010307070606060602000000B917DE
:1013100011241FBECFEFDAE0DEBFCDBF12E0A0E0A8
:10132000B1E0E6EBF6E402C005900D92A434B107FB
:10133000D9F727E0A4E4B2E001C01D92AD32B207B4
:10134000E1F719E0C8E8D9E004C02197FE010E9446
:101350008622C738D107C9F70E94D6170C945923A3
:101360000C9400006034710590F5480F592F511D01
:101370001416150664F5803891054CF597FF02C0E8
:1013800090E080E04138510514F040E850E0481BFF
:10139000FB01E770FF2721E001C0220FEA95EAF781
:1013A000FB0133E0F595E7953A95E1F7F695FE2FC9
:1013B000EE27F795E795E80FF91FEB52FD4F4150E7
:1013C00030F08191DF011197822B8C93F8CF089533
:1013D000E5EDF2E080E0A0E0B8E000800EBC811115
:1013E000012C1197A0FDFDCF0192B9F70DB408951E
:1013F0002F923F924F925F926F927F928F929F9225
:10140000AF92BF92CF92DF92EF92FF920F931F9312
:10141000CF93DF93CDB7DEB72E970FB6F894DEBF2C
:101420000FBECDBF7C018B016A01681779070CF0F4
:101430000DC1481759070CF41CC1982F8F2D7B0143
:101440008A01C92ED82EE8E7AE2EB12C2EE730E067
:101450003E872D878BE790E0E016F10609F043C048
:101460004D855E85A416B5066CF03D852E854D85AF
:101470005E854A155B0514F43A2D2B2DAD84BE8490
:101480003D872E874D855E854817590714F49E8742
:101490008D875D855F5F452F4A19B701C5012E967F
:1014A0000FB6F894DEBF0FBECDBFDF91CF911F9175
:1014B0000F91FF90EF90DF90CF90BF90AF909F90F3
:1014C0008F907F906F905F904F903F902F900C94F3
:1014D000B2098BE790E07EE7A72EB12C28E730E039
:1014E0003E872D87C2CF3C2D2D2D67017801032F1C
:1014F000122F95014D855E85241B350B38872F8370
:1015000098012C193D093A8729873C01641A750A0C
:10151000A7014C195D095A8349839C012A193B098B
:101520003C832B83A701401B510B5C874B870E1517
:101530001F0509F446C0C80101979E838D834601AB
:10154000512C412C312C212C2D813E81281539051F
:10155000DCF1C10169857A850E945E222D853E8578
:10156000260F371FC20169817A810E945E224D8554
:101570005E85640F751F8F819885280E391E460C75
:10158000571C621773071CF4922F9B01692F6F5F22
:10159000462F421BB401C9010E94B2099FEF891A6C
:1015A000990AD2CF9E2D8F2D7801092F182F8EE703
:1015B00090E058E7A52EB12C4BE750E05E874D87B1
:1015C00098CF1E830D83BBCFC401801B910B2B8151
:1015D0003C81829F8001839F100D929F100D1124EA
:1015E000C4018C199D09869D6001879DD00C969D34
:1015F000D00C1124E814F9040CF462C0C8016B8506
:101600007C850E945E229B012A0D3B1DC6016981DB
:101610007A810E945E224D855E85640F751F8B81E5
:101620009C81080F191FC60CD71C621773071CF486
:10163000922F9B01692F6F5F462F421BB401C90196
:101640000E94B2099FEF891A990AD4CF461757070B
:101650004CF18417950709F43CCF8D2D6701E42EDA
:10166000F82E8BE790E02EE7A22EB12C28E730E091
:1016700016C088E790E04EE7A42EB12C2BE730E0AF
:10168000C616D70664F09C2D8D2D6801092F182FE2
:1016900088E790E06BE7A62EB12C2EE730E03E877E
:1016A0002D8727CF481759070CF47CCF3BE7A32E93
:1016B000B12C48E750E05E874D878EE790E0CCCEB6
:1016C0002E960FB6F894DEBF0FBECDBFDF91CF913F
:1016D0001F910F91FF90EF90DF90CF90BF90AF9050
:1016E0009F908F907F906F905F904F903F902F9042
:1016F0000895FC018091D402882311F13FB7F8943A
:1017000082E08093E9002091F200822F90E0181689
:10171000190614F481E090E0882339F0289844E613
:101720004093D3024091F1004083222339F020916D
:10173000F200211103C02BE62093E8003FBF08957B
:101740008FEF9FEF08952FB7F89483E08093E9001F
:101750009091E800892F807295FF04C09091F2006B
:1017600080E4891B2FBF08958091CB0281110DC0A9
:1017700082E08093C70284E08093C8021092CA027C
:101780001092C90281E08093CB0287EC92E0089529
:1017900040914B0250914C022091490230914A02F3
:1017A00042175307B4F49091E8009570E1F39091DB
:1017B000E80092FD19C08093F10080914B02909156
:1017C0004C0201968F739927892B19F48EEF809321
:1017D000E80080914B0290914C02019690934C024C
:1017E00080934B0281E0089580E00895EF92FF928C
:1017F0000F931F93CF93DF93F82E192FE62E042F0C
:1018000081E0860F880F0E94C80B83E00E94C80BFE
:10181000CF2DD12FEC0EFD2EF11CCE15DF05B9F02A
:1018200007FF13C0FE0184910E94C80B182F80E0AF
:101830000E94C80B812321968111EFCFDF91CF91B8
:101840001F910F91FF90EF9008958881EDCF81E077
:10185000F5CFDF92EF92FF920F931F93CF93DF9319
:10186000D82E8A01EB017B01E40EF51ECE15DF05B3
:1018700059F0D7FE12C0FE0184910E94C80B219638
:101880008111F4CF0FEF1FEFC801DF91CF911F91AE
:101890000F91FF90EF90DF9008958881EECF0F9326
:1018A0001F93CF93DF931F92CDB7DEB782E089837A
:1018B00042E450E06AEB76E080E80E94290C0E9446
:1018C000B40BDC0112960D911C910115110589F0E4
:1018D000D801ED91FC910280F381E02DBE016F5F94
:1018E0007F4FC801099597FD04C0F8010085118557
:1018F000ECCF89810F90DF91CF911F910F910895C7
:10190000615030F02091F100FC0120830196F8CF66
:10191000289884E68093D3020895AF92BF92CF9225
:10192000DF92EF92FF920F931F93CF93DF936C019F
:101930007B018B01040F151FEB015E01AE18BF0880
:10194000C017D10759F06991D601ED91FC91019032
:10195000F081E02DC6010995892B79F7C501DF914A
:10196000CF911F910F91FF90EF90DF90CF90BF909C
:10197000AF900895FC01448155816081718185E2B9
:1019800097E00C948D0CCF93DF931F92CDB7DEB709
:101990006983DC01ED91FC910280F381E02D41E04F
:1019A00050E0BE016F5F7F4F09950F90DF91CF919F
:1019B000089583E08093E9008091F200882319F074
:1019C0008AE38093E80008950E94A30B90E00895B5
:1019D000CF93DF931F92CDB7DEB7FC018485958549
:1019E00097FD08C02FEF3FEF358724870F90DF91D9
:1019F000CF910895CE0101960E94790B019719F4B9
:101A0000898190E0F3CF8FEF9FEFF0CF0F931F937B
:101A1000CF93DF931F92CDB7DEB78C01FC01848595
:101A2000958597FF0BC0CE0101960E94790B019717
:101A300071F4898190E0F80195878487F8018485A5
:101A400095850F90DF91CF911F910F9108958FEFA2
:101A50009FEFF1CFFC018485958597FD0BC09FB763
:101A6000F89482E08093E9008091F2009FBF90E0BB
:101A7000019608959FB7F89482E08093E9008091E1
:101A8000F2009FBF90E008953FB7F894809145021F
:101A900090914602A0914702B091480226B5A89BBA
:101AA00005C02F3F19F00196A11DB11D3FBFBA2FF0
:101AB000A92F982F8827BC01CD01620F711D811DB0
:101AC000911D42E0660F771F881F991F4A95D1F735
:101AD00008958F929F92AF92BF92CF92DF92EF9232
:101AE000FF926B017C010E94440D4B015C01C1140B
:101AF000D104E104F104B9F00E94440D6819790998
:101B00008A099B09683E73408105910580F321E0B5
:101B1000C21AD108E108F10888EE880E83E0981E09
:101B2000A11CB11CE4CFFF90EF90DF90CF90BF904D
:101B3000AF909F908F9008958F929F92AF92BF9297
:101B4000CF92DF92EF92FF920F931F93CF93DF9389
:101B50006C017B018A0180910B01882309F45CC030
:101B60008091D402882309F457C080914F0280FFEE
:101B700005C08091E00082608093E000E801B12C14
:101B80008AEFA82E93E0892E2AE3922E209711F453
:101B9000BB20D9F10E94A30B81110AC0AA94AA20EC
:101BA000D9F161E070E080E090E00E94690DEECF35
:101BB0008C171D0611F00CF08C2F9FB7F8948092B3
:101BC000E9002091E80025FD02C09FBFDFCF282F4C
:101BD00030E0C21BD30BF701815020F041914093BC
:101BE000F100FACFE20EF31EBB2021F09092E80044
:101BF000B12CEBCF8091E80085FDE7CF9092E80013
:101C0000BB24B394209709F3F3CF5D9884E68093C7
:101C10004E02101611063CF081E090E0F60193832D
:101C2000828310E000E0C801DF91CF911F910F91F6
:101C3000FF90EF90DF90CF90BF90AF909F908F90EC
:101C40000895BC0190E080E00C94690D8FB18095FF
:101C5000807F669B88601C9B846008959091BF0282
:101C6000982329F49091C002982381E009F480E040
:101C700008952F923F924F925F926F927F928F9230
:101C80009F92AF92BF92CF92DF92EF92FF920F930B
:101C90001F93CF93DF93CDB7DEB728970FB6F89495
:101CA000DEBF0FBECDBF30E0F901E80FF91F1E16F1
:101CB0001F060CF086C0803891050CF082C0602EA3
:101CC000669466946694712C077019F0EFEF6E1AA3
:101CD0007E0A8B01077011274A01AB0173E055950D
:101CE00047957A95E1F75E834D8318861F8248E019
:101CF00050E0BA01601B710B7A8369834D805E806E
:101D00004F815885440E551EA2015695542F4427E5
:101D1000579547956C011A01280E391E40585F4FA0
:101D2000BA01680F791F7C836B8370E060E0D7FC99
:101D30002FC0DB01A20DB31DAB52BD4FFC90F401CF
:101D4000E60FF71F41E0E41255C0A490002E01C039
:101D5000AA0C0A94EAF7AF28AC9201151105C1F05C
:101D600057E045165104A1F0AB81BC81A60FB71F07
:101D7000AB52BD4F4C9151E0E51249C0E491F0E007
:101D8000098002C0F595E7950A94E2F74E2B4C9333
:101D90006F5F7F4FEFEFCE1ADE0A621773072CF4E6
:101DA000E0E8CE16D10409F0C2CF4F8158854F5FCD
:101DB0005F4F58874F83820E931E6416750609F095
:101DC0009DCF28960FB6F894DEBF0FBECDBFDF9132
:101DD000CF911F910F91FF90EF90DF90CF90BF9028
:101DE000AF909F908F907F906F905F904F903F90BB
:101DF0002F900895449150E0002E02C0440F551FCB
:101E00000A94E2F7409550954F214C93A6CFE49168
:101E1000F0E0098002C0F595E7950A94E2F7E095B5
:101E2000F0954E23B4CF80389105B8F46034710535
:101E3000A0F420E191E061FD94E060FD990F62FD66
:101E40009295687F269FD0011124A80FAB52BD4FF9
:101E50008C9140FF03C0892B8C9308959095892322
:101E6000FBCF2F923F924F925F926F927F928F9211
:101E70009F92AF92BF92CF92DF92EF92FF920F9319
:101E80001F93CF93DF937C014B01C42FD0E081E0FF
:101E900090E06C01CC1ADD0AAA24BB24AC1ABD0A5E
:101EA000AA0CBB1C66246394712C10E000E0822F06
:101EB0008470582E822F8270482E822F8870382E80
:101EC0002170222ED7FC06C0219782E0A80EB11CFB
:101ED000CA0CDB1C0F5F1F4F82E0680E711CC60C22
:101EE000D71C552091F041E0BE01680D791DC70156
:101EF000800F911F0E94130F41E0B401600F711F0A
:101F0000CE018E0D9F1D0E94130F442091F041E0E1
:101F1000B4016C1B7D0BC701800F911F0E94130F32
:101F200041E0B401601B710BCE018E0D9F1D0E941C
:101F3000130F332091F041E0B401600F711FC7010E
:101F40008C1B9D0B0E94130F41E0BE01680D791D93
:101F5000C701801B910B0E94130F222091F041E0DA
:101F6000B401601B710BC7018C1B9D0B0E94130FEA
:101F700041E0B4016C1B7D0BC701801B910B0E94DB
:101F8000130F0C171D070CF49DCFDF91CF911F91FC
:101F90000F91FF90EF90DF90CF90BF90AF909F9008
:101FA0008F907F906F905F904F903F902F9008950B
:101FB0002F923F924F925F926F927F928F929F9259
:101FC000AF92BF92CF92DF92EF92FF920F931F9347
:101FD000CF93DF93EC018B017A016901C61AD70A0E
:101FE000D7FE03C0D194C194D10847018C1A9D0A31
:101FF00097FE03C09194819491088C149D0454F42D
:102000009E2D8F2D7901292F382F9C2F8D2FE801A0
:10201000092F182FEC16FD0654F4902F812F8901FB
:10202000292F382F9C2F8D2FE701E92EF82E17012D
:102030002C1A3D0A2901401A510A57FE03C0519437
:1020400041945108310137FE03C08FEF681A780AB6
:10205000759467948FEF021713070CF481E0A82E94
:10206000880FBB08EC16FD06A4F041E0BE01C801D4
:102070008C149D0414F0B801CE010E94130F641853
:10208000750877FE04C00A0D1B1D620C731C219697
:10209000E9CFDF91CF911F910F91FF90EF90DF90EB
:1020A000CF90BF90AF909F908F907F906F905F90F8
:1020B0004F903F902F9008955F926F927F928F92F2
:1020C0009F92AF92BF92CF92DF92EF92FF920F93C7
:1020D0001F93CF93DF936D3089F0C090C302D090EF
:1020E000C4026A30E9F41092C2021092C10288E080
:1020F000C80ED11CD092C402C092C30281E090E00D
:10210000DF91CF911F910F91FF90EF90DF90CF90D3
:10211000BF90AF909F908F907F906F905F90089549
:102120006090620250900D010091C1021091C202B4
:10213000E5E06E9FE0011124C654DE4F5801F12CFA
:10214000F5E0E12CFF1629F0CE010196FE01E490A6
:10215000EC01460188E0782EE0FC18C0462D6510A1
:1021600016C0E6947A94FFEF8F1A9F0A7110F4CF8D
:10217000F3948FEFA81AB80AE6E0FE12E1CF0A5FE7
:102180001F4F1093C2020093C102B8CF452DB40176
:10219000C5010E94130FE5CFDF92EF92FF920F93DC
:1021A0001F93CF93DF937C01D22E8B01040F111D5F
:1021B000EB0177FF02C0D0E0C0E0C8010134110597
:1021C00014F080E490E0C817D9073CF44D2DBE010F
:1021D000C7010E94130F2196F0CFDF91CF911F917D
:1021E0000F91FF90EF90DF9008955F926F927F9232
:1021F0008F929F92AF92BF92CF92DF92EF92FF9217
:102200000F931F93CF93DF93EC017B01142F722E5A
:10221000602E660C542E5618802E912C5401A80E58
:10222000B91E452DC5010E94B2096701C70CD11C1A
:10223000B60161507109452DC5010E94B209761899
:10224000E80CF91C21E0472DB701CE010E94CC100B
:10225000C10FD11D21E0472DB701CE0101970E948A
:10226000CC1021E0402FB701C5010E94310FC819E1
:10227000D909219722E0402FB701CE010E94310FEA
:102280007601E818F90881E0E81AF10824E0402F07
:10229000B701CE010E94310F28E0402FB701C501E0
:1022A000DF91CF911F910F91FF90EF90DF90CF9032
:1022B000BF90AF909F908F907F906F905F900C94A5
:1022C000310F2F923F924F925F926F927F928F9237
:1022D0009F92AF92BF92CF92DF92EF92FF920F93B5
:1022E0001F93CF93DF9300D000D0CDB7DEB75C0152
:1022F0002B012A83242F30E03C832B8381E090E064
:102300007C01E21AF30A1901319421943108220C5C
:10231000331C88248394912CD12CC12C31E0300FB4
:102320003983F7FC0AC0EB81FC813197FC83EB8396
:10233000F2E02F0E311CE20CF31C2FEFC21AD20A6E
:1023400032E0830E911CE80CF91C4B81440FB20162
:102350008B819C81681B790B102F180D32016C1832
:102360007D089A81913069F5E9814E0F21E0C50120
:102370008C0D9D1D0E94CC1021E0412FB3018B815B
:102380009C818A0D9B1D0E94CC108B819C81C8165C
:10239000D9063CF20F900F900F900F90DF91CF91E4
:1023A0001F910F91FF90EF90DF90CF90BF90AF9073
:1023B0009F908F907F906F905F904F903F902F9065
:1023C0000895F9814F0F21E0C5018C199D090E94E4
:1023D000CC1021E0412FB301C501EB81FC818E1BA4
:1023E0009F0BD1CF4F925F926F927F928F929F926D
:1023F000AF92BF92CF92DF92EF92FF920F931F9313
:10240000CF93DF934C017B01442EC22F502E802F9F
:10241000880F642E681A10E05801A80CB91C6501D9
:102420006A0C7B2C711CC614D70454F421E04C2F89
:10243000B701C6010E94CC108FEFC81AD80AF3CF9B
:10244000D0E0C801880F991FC81BD90B2197E00E57
:10245000F11E840C911CC401801B910B8E0121E0A4
:10246000452DB70101970E94611122E0452DB7016A
:10247000C5010E946111DF91CF911F910F91FF90D3
:10248000EF90DF90CF90BF90AF909F908F907F9014
:102490006F905F904F9008952F923F924F925F926E
:1024A0006F927F928F929F92AF92BF92CF92DF9264
:1024B000EF92FF920F931F93CF93DF93CDB7DEB7C9
:1024C00060970FB6F894DEBF0FBECDBF962E4A8739
:1024D0002F87262F30E0398728872C013F85300F42
:1024E0003F83BB24B394A12C8F85282E312CF1017E
:1024F0003297FE87ED873101F1E06F1A7108A91458
:1025000009F47CC0CB2CD12C2D853E852C0D3D1D96
:102510003C832B83C60101969E838D835A82498218
:102520009A85988B812C981409F460C0E981FA810E
:102530001191FA83E9838FEF810F833028F5F889B1
:10254000EF2EF12C01E02F85422FB601C7010E942A
:10255000F510123051F581010E0D1F1D02501109A9
:102560008FEFE81AF80A2B813C81A8016D817E81EA
:10257000C7010E94D80F2D813E81A8016B817C810B
:10258000C7010E94D80F0BC011110FC001E02F85A9
:10259000422FB6013889832F90E00E94F211839474
:1025A00038898F81380F388BBECF1330C1F712E0D6
:1025B000F889EF2FF0E0FC87EB87E12EF12CE61491
:1025C000F7046CF702E0EC0CFD1C802F90E0861500
:1025D000970554F441E0B7012B853C85820F931F8A
:1025E0000E94130F0E5FF1CF1E5FE7CFA394E88523
:1025F000F9854E0E5F1EFF81BF0E81CF60960FB62C
:10260000F894DEBF0FBECDBFDF91CF911F910F9128
:10261000FF90EF90DF90CF90BF90AF909F908F9002
:102620007F906F905F904F903F902F900895EF9222
:10263000FF920F931F93CF93DF937C018B01C42FE5
:10264000D22F0E94B209B8016D0F711D615071093E
:102650004C2FC7010E94B20921E04D2FB801C701DC
:102660000E94CC10C7018C0F911D21E04D2FB801A5
:102670000197DF91CF911F910F91FF90EF900C94F4
:10268000CC1049E050E066E070E086E090E00C9409
:10269000F80941E050E064E070E084E090E00C94E0
:1026A000F8091092620281E080930D0108950F9362
:1026B00004E028E34CE764E070E082E090E00E94F0
:1026C000F21187E090E09093C2028093C10289E00A
:1026D00090E09093C4028093C30210920D0181E0B8
:1026E000809362020F910895EF92FF920F931F93D0
:1026F000CF93DF937B01042FFC014481142F110F32
:10270000140F110F4FEF410F20E830E0241B310967
:1027100037FF02C02F5F3F4F35952795E901DD2731
:10272000D093C202C093C102F092C402E092C302ED
:102730000E94BA0C002359F045E0410FB7016350E5
:10274000710904E02EE0CE0103970E94F510DF919D
:10275000CF911F910F91FF90EF900895089590E011
:1027600080E00895FC0101900020E9F73197AF0166
:10277000481B590BBC0185E297E00C948D0C82E05C
:1027800090E00E94112291E0813009F090E0892FC1
:10279000089581E090E00C94112210925E020E9454
:1027A000C9138823A1F0813378F490E09195819545
:1027B00091099093600280935F0282E090E0909391
:1027C000C6028093C50208958FEC9FEFF2CF10925E
:1027D000600210925F02F1CFCF93DF93EC0188810A
:1027E0009981009711F00E944321198218821D825D
:1027F0001C821B821A82DF91CF910895FC01808197
:102800009181009711F00C94432108950F931F9329
:10281000CF93DF93EC0188819981009759F02A8149
:102820003B812617370730F081E0DF91CF911F9170
:102830000F9108958B016F5F7F4F0E948C2200974C
:1028400059F0998388831B830A832C813D81232B34
:1028500059F7FC011082E8CF80E0E7CFEF92FF92BA
:102860000F931F93CF93DF93EC01FB01E080F18086
:10287000E114F10411F10481158101151105A9F08C
:102880008C819D81080F191FB801CE010E9406148A
:10289000882399F0288139818C819D81B701820F2D
:1028A000931F0E9452231D830C83CE01DF91CF9191
:1028B0001F910F91FF90EF900895CE010E94EC13AD
:1028C000F4CFEF92FF920F931F93CF93DF93EC011E
:1028D0007B018A01BA010E94061481110BC0CE014E
:1028E0000E94EC13CE01DF91CF911F910F91FF90C9
:1028F000EF9008951D830C83B701888199810E9410
:102900005223F0CFFB0101900020E9F73197AF018E
:10291000461B570B0C9461140F931F93CF93DF93B7
:10292000CDB7DEB729970FB6F894DEBF0FBECDBF87
:102930008C01862FF8011182108213821282158277
:1029400014824AE0BE016F5F7F4F90E00E94E72152
:10295000BE016F5F7F4FC8010E94821429960FB697
:10296000F894DEBF0FBECDBFDF91CF911F910F91C5
:102970000895FC0111821082138212821582148242
:102980006115710551F0FB0101900020E9F73197C5
:10299000AF01461B570B0C94611408951F920F92C0
:1029A0000FB60F9211248F939F938091E100909125
:1029B000E100937F9093E10083FF0FC01092E90044
:1029C00091E09093EB001092EC0092E39093ED0075
:1029D0001092D40298E09093F00082FF22C093E01E
:1029E0009093E9009091F200992319F09AE3909363
:1029F000E80090914E02992341F090914E0291503F
:102A000090934E02911101C05D9A9091D302992347
:102A100041F09091D30291509093D302911101C053
:102A2000289A84FF18C08091E2008E7E8160809396
:102A3000E2008091E1008F7E8093E10080914F025F
:102A40008E7E806180934F029F918F910F900FBE79
:102A50000F901F90189580FFF7CF8091E2008E7E37
:102A600080618093E2008091E1008E7E8093E1009E
:102A700080914F028E7E8160E5CF1F920F920FB63C
:102A80000F921124CF92DF92EF92FF920F931F9338
:102A90002F933F934F935F936F937F938F939F9366
:102AA000AF93BF93EF93FF93CF93DF93CDB7DEB791
:102AB0006C97DEBFCDBF1092E9008091E80083FFE4
:102AC00025C068E0CE0145960E94800C82EF80937D
:102AD000E8008D8987FF39C09091E80090FFFCCF16
:102AE000982F907609F034C19E894F89588D2F898F
:102AF000F88C911131C0803861F58091500280933B
:102B0000F1001092F1008EEF8093E8006C960FB602
:102B1000F894DEBF0FBECDBFDF91CF91FF91EF9153
:102B2000BF91AF919F918F917F916F915F914F91E5
:102B30003F912F911F910F91FF90EF90DF90CF90D9
:102B40000F900FBE0F901F9018959EEF9093E80086
:102B5000C7CF1092F100D5CF913059F48111D3CF66
:102B60004130510581F6809150028D7F8093500253
:102B7000CACF933049F48111C6CF4130510519F6BF
:102B8000809150028260F2CF953041F48091E8004C
:102B900080FFFCCF20682093E300B5CF963009F08A
:102BA000A9C00B8D1C8D22E01092E90010924C02FE
:102BB00010924B02F2122EC010924A021092490259
:102BC0000E944F0C1F8299E09983FA8291E09E83C4
:102BD00090EA98879AEF998720914B0230914C02A6
:102BE000275F3F4F3C832B838D831092E900109227
:102BF0004C0210924B0210934A020093490249E0A2
:102C000050E0BE016F5F7F4F80E00E94290C0E9460
:102C10004F0C79CF10934A02009349020E94B40BE3
:102C2000DC0112960D911C910115110509F451C199
:102C3000D801ED91FC910480F581E02DBE016B5E21
:102C40007F4FC8010995009709F03EC1F801008542
:102C50001185EACFF3E0FF120EC08F89882309F4B3
:102C600040C0823061F440E867E08EE197E00E9466
:102C7000F60B811148CF81E28093EB0047CF813082
:102C800029F440E86BE082E197E0F1CF833099F7D7
:102C90000E94B40BDC011296ED90FC908E010F5F48
:102CA0001F4F6801E114F10479F0D701ED91FC9117
:102CB0000680F781E02DB801C7010995080F111DA5
:102CC000F701E084F184EECFD8011C92F601019067
:102CD0000020E9F73197BF016C197D0940E0C6017A
:102CE000C6CF6CEF76E0FB01449150E080E80E9493
:102CF000290C09CF973009F4BECF983021F481E038
:102D00008093F10000CF993009F0FDCE837009F077
:102D1000B2CFE5E1F1E081E031E096E321912223B9
:102D200071F08093E9003093EB00DF0111972C9153
:102D30002093EC009093ED008F5F873079F78EE75A
:102D40008093EA001092EA008F898093D402DBCE50
:102D50008B8D9C8D1092E90010924C0210924B02C8
:102D600090934A0280934902898D811192C08E8985
:102D70009D89913A49F4813209F07DCF47E050E0D6
:102D800064E071E080E0B3CF913209F074CF833218
:102D900069F48F89988DB0E0A0E080930001909352
:102DA0000101A0930201B0930301ADCE803269F41A
:102DB0008091E80082FFFCCF67E084E091E00E9410
:102DC000800C8BEF8093E8009ECE823209F09BCE80
:102DD0008F8980930B01EEEFFFE7859194918B3FF4
:102DE0009C4D51F1E0E0F8E08091040190910501E3
:102DF000A0910601B0910701803B9440A105B10567
:102E0000F1F480910B0180FD1AC0EE3F8AE0F807D3
:102E100089F587E797E791838083809160008093AD
:102E20004D0288E19BE00FB6F894A895809360006E
:102E30000FBE9093600067CEEEEFFAE0D5CF8081B1
:102E400091818737974709F05ECEA8958091600001
:102E500088618093600080914D0280936000EE3F16
:102E60002AE0F20789F08091FE0A9091FF0A91838F
:102E7000808349CE808191818737980751F2909362
:102E8000FF0A8093FE0AC5CF1092FF0A1092FE0A35
:102E90003ACE0E94B40BDC0112960D911C910115E3
:102EA000110509F4E8CED801ED91FC910190F08173
:102EB000E02DBE016B5E7F4FC8010995811123CEC5
:102EC000F80100851185EBCF181619060CF41BCEFE
:102ED000D2CEF1E0FF12BECE60E077E004CF1F92C9
:102EE0000F920FB60F9211242F933F938F939F93BE
:102EF000AF93BF938091510290915202A0915302DF
:102F0000B09154023091440223E0230F2D3758F53D
:102F10000196A11DB11D209344028093510290930C
:102F20005202A0935302B0935402809145029091B3
:102F30004602A0914702B09148020196A11DB11D21
:102F40008093450290934602A0934702B0934802B3
:102F5000BF91AF919F918F913F912F910F900FBE95
:102F60000F901F90189526E8230F0296A11DB11D02
:102F7000D2CFE5EDF6E01382128288EE93E0A0E076
:102F8000B0E084839583A683B7838FE191E091833A
:102F900080838FEF9FEF95878487E5E2F7E01382C8
:102FA000128281E391E0918380830895CF93DF9330
:102FB000CDB7DEB7C558D1090FB6F894DEBF0FBE46
:102FC000CDBF789484B5826084BD84B5816084BDB2
:102FD00085B5826085BD85B5816085BD80916E00B7
:102FE000816080936E0010928100809181008260E8
:102FF0008093810080918100816080938100809125
:103000008000816080938000809191008260809335
:103010009100809191008160809391008091900057
:103020008160809390008091C10084608093C10092
:103030008091C10082608093C1008091C100816055
:103040008093C1008091C30081608093C300809110
:10305000C00082608093C0008091C2008160809334
:10306000C20080917A00846080937A0080917A0017
:10307000826080937A0080917A00816080937A00E8
:1030800080917A00806880937A001092D402109226
:10309000500210924F028091D70081608093D70038
:1030A00080EA8093D80089B5806189BD89B5826046
:1030B00089BD09B400FEFDCF61E070E080E090E0E2
:1030C0000E94690D8091D8008F7C80618093D80028
:1030D0008091E000807F8093E0008091E1008E7E0F
:1030E0008093E1008DE08093E200559A209A90E071
:1030F00080E00E9411228B3781F001E010E060E057
:10310000C8010E9419220F5F1F4F05331105B9F73F
:103110006BE790E080E00E94192281EC80937C00B4
:1031200085B1806F85B984B1877E84B984B1876E9B
:1031300084B95E9A5F988AB1806D8AB9769A6E98E2
:1031400081B3806F81BB899880B38D7080BB80E52F
:103150008CBD81E08DBD85E090E00E94210E5F9ADC
:1031600085E090E00E94210E5E985C98E6E2F7E030
:1031700083E397E024912EBD00000DB407FEFDCF40
:1031800031968E179F07B1F75C9A81E880936400AF
:10319000809165008160809365000E94E8090E942B
:1031A000260E87FF15C05C9885EA8EBD00000DB421
:1031B00007FEFDCF5C9A2E982F982D988091640081
:1031C00080628093640081E083BF889513BEFCCF4A
:1031D00082E390E00E94210E0E94260E8111F8CF1A
:1031E00082E380930C013E9A3F9A109290008AE00D
:1031F000809391006E0126E3C20ED11C8FB7F89424
:1032000040915102509152026091530270915402C8
:103210008FBF30905702332049F01092570280E060
:1032200090E0892B59F30E940000E4CF809158026E
:10323000342F381B832F90910C01391740F48F5F86
:10324000891768F781E083BF889513BEE8CF81E0D6
:1032500080935702409358028091550290915602F4
:1032600001969093560280935502832DE5EDF2E08E
:1032700081118FEF00248193819381938193039433
:10328000D1F71092C4021092C3021092C20210929F
:10329000C1028091C0028093BF020E94260E8093DB
:1032A000C0028091C5029091C6028230910509F456
:1032B000E1C348F4009709F4D1C0019709F477C13C
:1032C0000E94E809ACCF8330910509F4E9C5049761
:1032D000B9F780915C02882309F48CC688E00E94CB
:1032E0002E0E882309F47DC660E081E090E00E9404
:1032F000192202E010E00F5F1F4F60E0C8010E943A
:10330000192203331105B9F710925C0281E0809312
:10331000590280935A0280915A0281110AC0809109
:103320005902882331F080ED97E00E94210E10921F
:10333000590210925A0261ED71E0CE0185599F4FFA
:103340000E94B9140E94BF13811107C06AED71E099
:10335000CE0185599F4F0E94821411E08091BC02DA
:10336000811110E01FAA1EAA19AE18AE1BAE1AAE2C
:10337000AD966EAD7FADAD976115710539F0E196F3
:103380004EAD5FADE197C6010E946114412F67E029
:1033900070E0C6010E947413C6010E94FE1311E082
:1033A0008091BC02813009F010E064EE71E0C6014A
:1033B0000E94B914412F65E170E0C6010E947413A8
:1033C000C6010E94FE1311E08091BC02823009F018
:1033D00010E06FEE71E0C6010E94B914412F63E264
:1033E00070E0C6010E947413C6010E94FE1311E032
:1033F0008091BC02833009F010E067EF71E0C601F4
:103400000E94B914412F61E370E0C6010E94741359
:10341000C6010E94FE1380915C02882309F443C612
:103420000E9457138CEF91E00E94B21387E090E066
:103430009093C2028093C10280E390E09093C40213
:103440008093C30288E092E00E94B2130E9451135D
:10345000CE0185599F4F0E94FE1332CF8091BE024C
:10346000882321F01092BD021092BE0284E00E94D7
:103470002E0E1091BD02882359F0113009F487C037
:1034800008F482C0123009F48DC081E08093BE023E
:1034900080E80E942E0E882329F0112319F0115084
:1034A0001093BD0280E10E942E0E882339F0809196
:1034B000BD02823018F48F5F8093BD0211E08091CD
:1034C000BD02811110E069E371E0C6010E94B914E8
:1034D000412F68E170E0C6010E947413C6010E948A
:1034E000FE1311E08091BD02813009F010E06FE31E
:1034F00071E0C6010E94B914412F64E270E0C60178
:103500000E947413C6010E94FE1311E08091BD0257
:10351000823009F010E06BE471E0C6010E94B9143A
:10352000412F60E370E0C6010E947413C6010E943F
:10353000FE1310E000E021E042E060E170E0C8012D
:103540000E94CC100F5F1F4F00381105A1F720E437
:1035500040E870E060E090E080E00E9417132EE306
:103560004EE761E070E081E090E00E941713EE24E6
:10357000E3940EE020E84DE052E162E070E090E07C
:1035800080E00E94390E9CCE0E94CD137ECF109217
:10359000BB021092BA0283E090E09093C60280933F
:1035A000C50273CF1092BC0284E090E0F6CF609128
:1035B0009702643009F4DCC0653009F4E0C0109172
:1035C000610202E0212F44E088E992E00E944C125F
:1035D00000E029E04AE46091970283E692E00E94CD
:1035E0004C1224E430E046E450E070E060E086E411
:1035F00090E00E94D80F42E0410F440F212F30E0AD
:103600002E5F3F4F8091B102829FB001839F700D6A
:1036100011245091B302529FC001539F900D112469
:10362000242F03960E9417138AE490E09093C2021D
:103630008093C10280E390E09093C4028093C30220
:103640006091B402C6010E948C1464E571E0CE0161
:1036500085599F4F0E94B914B601CE0185599F4FDD
:103660000E942E140E94BA0CCE0185599F4F0E94D1
:10367000FE13C6010E94FE138091B902882309F44B
:10368000C6C088E00E942E0E811105C084E00E9411
:103690002E0E882339F08091B802882309F474C073
:1036A0001092B9020E9457136091B502CE0185595C
:1036B0009F4F0E948C146CE571E0CE0183589F4FA0
:1036C0000E94B914BE0165597F4FCE0183589F4FA8
:1036D0000E942E148C01DC011496ED90FC90B7E052
:1036E000EB0EF11CB7010E940614811150C0C801F5
:1036F0000E94EC131FAA1EAA19AE18AE1BAE1AAE7A
:103700000C151D0559F0F801608171816115710575
:1037100029F044815581C6010E94611440E06CE0AB
:1037200070E0C6010E947413C6010E94FE13CE0110
:1037300083589F4F0E94FE13CE0185599F4F0E94D0
:10374000FE138091B50290919502981788F590919B
:1037500096027DEE872E71E1972EEDECAE2EE1E123
:10376000BE2E981750F55DEC852E51E1952E24C0A4
:103770008EE08093610282E08093B20220CF8BE0E2
:103780008093610283E0F8CF0E94CD138BCFF801C4
:10379000208131818481958167E671E0820F931FDA
:1037A0000E945223D8011596FC92EE921497A2CF54
:1037B0006DEE862E61E1962E5401E12C00E120E1B0
:1037C0004DEE51E16EE170E085E290E00E94390E2D
:1037D00020E1A4016EE170E088E390E00E94390EE0
:1037E00020E1A5016EE170E08BE490E00E94390ECB
:1037F0000E9451138091B602882309F461CD815053
:103800008093B60281115CCD1092900059CD109139
:10381000B80288E00E942E0E1123D9F0811104C055
:1038200084E00E942E0E81110E94CD130E94571336
:1038300089E090E09093C2028093C1028BE090E017
:103840009093C4028093C3028FE691E00E94B2136A
:10385000CFCF9091B7029923A1F1882351F1109213
:10386000B7020E94CD130E94571309E010E0109395
:10387000C2020093C1028BE090E09093C402809357
:10388000C30282E891E00E94B2131093C202009337
:10389000C1028EE290E09093C4028093C3028EE84E
:1038A00091E00E94B2131092620281E080930D01B8
:1038B000A1CF84E00E942E0E8823A9F21092B702B5
:1038C000D2CF882319F081E08093B70284E00E9470
:1038D0002E0E882309F471C00E94BF13882361F063
:1038E00082E08093B60280E48093900087E893E1C1
:1038F0009093990080939800E09197029091B10283
:103900008091B302E99F800D112490E0AC014856EC
:103910005D4FDA017C919C0127563D4FD9016C9196
:10392000E80FF92FF11DDF01A856BD4F9C918F01C3
:1039300007561D4FF8018081FA019083F9017083C9
:103940008C93D8016C938091B5028F5F8093B50200
:10395000E8E9F2E0A3E6B2E081EB92E031912D914B
:1039600032132BC08E179F07C9F781E08093B902ED
:103970001091B402113309F080E08093B8021F5F08
:10398000E12EF12CE2E0EE0EF11CC7010E941122A3
:10399000082F0E94C913882311F0811728F4612F82
:1039A00081E090E00E9419226091B502002311F09D
:1039B000601718F4C7010E94192280E20E942E0E9F
:1039C000882339F08091B302882319F081508093C5
:1039D000B30280E40E942E0E882349F08091B30246
:1039E0009091B202891718F48F5F8093B30280E838
:1039F0000E942E0E882339F08091B102882319F09D
:103A000081508093B10280E10E942E0E882349F0FC
:103A10008091B1029091B202891718F48F5F809360
:103A2000B1028AE490E09093C2028093C10289E3DC
:103A300090E09093C4028093C3026091B502C601E6
:103A40000E948C146DE971E0CE0185599F4F0E9450
:103A5000B914B601CE0185599F4F0E942E140E94C1
:103A6000BA0CCE0185599F4F0E94FE13C6010E94D9
:103A7000FE13C0CE88E00E942E0E882309F49DC05C
:103A800080915D02882309F494C010925D0265EA7A
:103A900071E0C6010E94B91440E062E070E0C60126
:103AA0000E947413C6010E94FE1380915F029091E0
:103AB00060029C012F5F3F4F2330310508F4EFC0B7
:103AC0009C0197FF04C022273327281B390B225063
:103AD0003109AC01415D5F4F4F35510508F0E1C040
:103AE00097FF03C0919581959109AC014E5F5F4F9F
:103AF000CD57DF4F59834883C358D040222ECB5730
:103B0000DF4F1882C558D040022D10E0CD57DF4F4F
:103B1000A881B981C358D040A017B1070CF4A6C141
:103B2000B5E32B9EB00111246D58784F45E350E06A
:103B3000C6010E94CC214801EFEF8E1A9E0AC801EF
:103B400003960E941122582E80915F02909160028C
:103B5000080F191FF6E4F09F5001F19FB00C1124DB
:103B6000750123E2E20EF11C06E022E34CE36EE075
:103B700070E0C7010E94F510350138E2630E711C38
:103B80002AE04CE36EE070E0C7010E94F21185016B
:103B9000015A1F4FE016F10609F48CC021E04AE0FB
:103BA00062E170E0C7010E94CC104FEFE41AF40A02
:103BB000F1CF1092C6021092C50284E00E942E0E30
:103BC000882309F440C080915D0281115ECF80910D
:103BD0005E0260915F027091600277FF03C0719591
:103BE00061957109882341F08617170609F024F4BE
:103BF00081E080935D024BCF6093B402B5E36B9F8D
:103C0000B00111246D58784F45E350E083E692E00F
:103C10000E94CC2189E1ECE7F2E0A8E9B2E0019052
:103C20000D928A95E1F71092B3021092B1021092B0
:103C3000B5021092B9021092B80281E090E0909320
:103C4000C6028093C50280E40E942E0E882369F08C
:103C500080915F0290916002813DEFEF9E07CCF072
:103C600001979093600280935F0280E20E942E0E83
:103C7000882309F40CCF80915F02909160028F3FFE
:103C8000FFEF9F074CF401969093600280935F02D0
:103C9000FECE8FEC9FEFE5CF90E080E0F5CF20E007
:103CA00018CF81E390E0CD57DF4F99838883C358C5
:103CB000D04024CF7092C2026092C10282E190E0B3
:103CC0009093C4028093C30210920D0111E01093EF
:103CD0006202EF961FAE1EAEEF97C158DF4F1982FA
:103CE0001882CF57D040CF57DF4F19821882C15862
:103CF000D0404AE0BE0165597F4FC4010E94DC21DB
:103D0000BE0165597F4FCE0183589F4F0E94821498
:103D100062EB71E0CE0185599F4F0E94B914BE013C
:103D200063587F4FCE0185599F4F0E942E140E94E9
:103D3000BA0CCE0185599F4F0E94FE13CE018358C5
:103D40009F4F0E94FE1310930D01109262024501D5
:103D500059E3850E911C552009F4D6C17092C20218
:103D60006092C1028FE190E09093C4028093C302FD
:103D7000652DCE0185599F4F0E948C1469EB71E02F
:103D8000CE0183589F4F0E94B914BE0165597F4FE1
:103D9000CE0183589F4F0E942E140E94BA0CCE0170
:103DA00083589F4F0E94FE13CE0185599F4F0E945A
:103DB000FE1385E3F601DE01119601900D928A95BE
:103DC000E1F7AA968FADAA97A9969FADA9979515E9
:103DD00040F5851560F13DEE432E31E1532E4DEC5B
:103DE000642E41E1742EEE24E39400E120E14DEED7
:103DF00051E16BE270E0C50186960E94390E20E128
:103E0000A2016BE270E0C4010E94390E20E1A3011F
:103E10006BE270E0C501845B9F4F0E94390E2394D2
:103E200073CE2DEE422E21E1522E3201DCCF9DECDD
:103E3000492E91E1592EF9CFCB57DF4F9881C558C4
:103E4000D040911102C020925E02EE24E39400E182
:103E500020E143E557E06BE270E0C4010E94390EB7
:103E6000CB57DF4F3882C558D040D9CF80915D0203
:103E7000882309F425CA0E94571389E090E09093A3
:103E8000C2028093C1028BE090E09093C4028093C1
:103E9000C30280EC91E00E94B2130E94511310CA39
:103EA00084E00E942E0E811105C088E00E942E0E33
:103EB000882321F01092C6021092C50280E80E9469
:103EC0002E0E882361F08091BA029091BB021816E1
:103ED00019062CF404979093BB028093BA0280E1F8
:103EE0000E942E0E882361F08091BA029091BB024D
:103EF000803691052CF404969093BB028093BA020D
:103F000083E3E82E87E0F82E01E110E08091BA0209
:103F10009091BB02D801A81BB90B1092C20210925B
:103F2000C102B093C402A093C302F70165917491DA
:103F3000C6010E94D521BC01CE0185599F4F0E9428
:103F4000B914CE0185599F4F0E94BA0CCE018559F4
:103F50009F4F0E94FE13075F1F4FB2E0EB0EF11C54
:103F6000013A110599F610E000E020E040E170E030
:103F700060E0C8010E94CC100F5F1F4F0038110590
:103F8000A1F76FE371E0CE0185599F4F0E94B914EC
:103F900040E062E070E0CE0185599F4F0E947413AB
:103FA000CE0185599F4F0E94FE132DE030E040E87E
:103FB00050E06DE070E090E080E00E94D80F8091CA
:103FC000BA029091BB02009719F40E94411378C97C
:103FD0008E3591051CF00E94491372C90E94491345
:103FE000F4CF84E00E942E0E882309F494C9109225
:103FF0005C0291C980915B02882371F088E00E9485
:104000002E0E811106C084E00E942E0E882309F432
:1040100082C910925B027FC984E00E942E0E882321
:1040200061F08091BC0281112CC00E94BF1361E03D
:10403000682782E090E00E94192288E00E942E0EFC
:10404000882321F01092C6021092C50280E80E94D7
:104050002E0E882339F08091BC02882319F08150FC
:104060008093BC0280E10E942E0E882309F453C97C
:104070008091BC02833008F04EC98F5F8093BC02F0
:104080004AC9813019F480935C02D7CF823021F481
:1040900081E080935B02D1CF833079F61092C60223
:1040A0001092C502CACF80915B02882319F10E9449
:1040B000571386E192E00E94B21307E010E01093DC
:1040C000C2020093C1028AE190E09093C4028093FF
:1040D000C30280E292E00E94B2131093C2020093E6
:1040E000C10285E290E09093C4028093C3028EE205
:1040F00092E0AAC980915902882309F4A9C90E94B3
:10410000571383E392E0A0C9311096CEEE24E394D6
:1041100000E120E14DEC51E16BE270E0C5018696D3
:104120000E94390E20E14DEC51E16BE270E0C401D8
:104130000E94390E20E14DEC51E16BE270E0C501C7
:10414000845B9F4F0E94390E3324339468CE0F93C3
:104150001F93CF93DF938230910510F482E090E0BB
:10416000E0912B07F0912C0730E020E0B0E0A0E0D8
:10417000309799F42115310509F44AC0281B390BF1
:1041800024303105D8F58A819B816115710589F14B
:10419000FB0193838283FE0111C040815181028122
:1041A000138148175907E0F04817590799F41097F9
:1041B00061F012960C93129713961C933296CF01CE
:1041C000DF91CF911F910F91089500932B071093CA
:1041D0002C07F4CF2115310551F04217530738F061
:1041E000A901DB019A01BD01DF01F801C1CFEF0197
:1041F000F9CF90932C0780932B07CDCFFE01E20FD0
:10420000F31F819391932250310939832883D7CFAB
:104210002091290730912A07232B41F42091100186
:104220003091110130932A072093290720910E0124
:1042300030910F012115310541F42DB73EB7409162
:10424000120150911301241B350BE0912907F091C5
:104250002A07E217F307A0F42E1B3F0B2817390794
:1042600078F0AC014E5F5F4F2417350748F04E0FD2
:104270005F1F50932A0740932907819391939FCF03
:10428000F0E0E0E09CCFCF93DF930097E9F0FC01F2
:10429000329713821282A0912B07B0912C07ED0167
:1042A00030E020E01097A1F420813181820F931F2C
:1042B0002091290730912A072817390709F061C092
:1042C000F0932A07E0932907DF91CF910895EA013F
:1042D000CE17DF07E8F54A815B819E014115510544
:1042E000B1F7E901FB83EA8349915991C40FD51FC6
:1042F000EC17FD0761F4808191810296840F951F70
:10430000E90199838883828193819B838A83F0E08A
:10431000E0E012968D919C9113970097B9F52D913D
:104320003C911197CD010296820F931F209129078E
:1043300030912A072817390739F6309751F510922E
:104340002C0710922B07B0932A07A0932907BCCF04
:10435000D383C28340815181840F951FC817D90729
:1043600061F44E5F5F4F88819981480F591F5183D7
:1043700040838A819B81938382832115310509F0D3
:10438000B0CFF0932C07E0932B079ECFFD01DC010B
:10439000C0CF13821282D7CFFB01DC0102C005908F
:1043A0000D9241505040D8F70895FB01DC01059073
:1043B0000D920020E1F70895BB274A3031F499238C
:1043C00022F4BDE2909581959F4F0C94E821BB2784
:1043D000FB015527AA27880F991FAA1FA41710F0C1
:1043E000A41B83955051B9F7A05DAA3308F0A95DCD
:1043F000A193009779F7B111B1931192CB010C946D
:104400000122DC01FC01672F71917723E1F73297DC
:1044100004C07C916D9370836291AE17BF07C8F39F
:104420000895F999FECF92BD81BDF89A992780B57C
:104430000895262FF999FECF1FBA92BD81BD20BDE8
:104440000FB6F894FA9AF99A0FBE019608952F9232
:104450003F924F925F926F927F928F929F92AF9214
:10446000BF92CF92DF92EF92FF920F931F93CF9361
:10447000DF93CDB7DEB7CA1BDB0B0FB6F894DEBFF8
:104480000FBECDBF09942A88398848885F846E841E
:104490007D848C849B84AA84B984C884DF80EE8068
:1044A000FD800C811B81AA81B981CE0FD11D0FB671
:1044B000F894DEBF0FBECDBFED01089597FB072E28
:1044C00016F4009407D077FD09D00E94722207FCF1
:1044D00005D03EF4909581959F4F08957095619514
:1044E0007F4F0895AA1BBB1B51E107C0AA1FBB1F2A
:1044F000A617B70710F0A61BB70B881F991F5A9570
:10450000A9F780959095BC01CD010895EE0FFF1F8E
:104510000590F491E02D0994B0E0A0E0E2E9F2E228
:104520000C9429228C01009751F4CB010E94A72002
:104530008C01C801CDB7DEB7E0E10C944522FC0147
:10454000E60FF71F9C0122503109E217F30708F428
:104550009DC0D901CD91DC911197C617D70798F06E
:10456000C530D10530F3CE0104978617970708F3BD
:10457000C61BD70B2297C193D1936D937C93CF0128
:104580000E944321D6CF5B01AC1ABD0A4C018C0EB0
:104590009D1EA0912B07B0912C07512C412CF12C82
:1045A000E12C109731F58091290790912A07881501
:1045B000990509F05CC04616570608F058C080916E
:1045C0000E0190910F01009741F48DB79EB7409175
:1045D000120150911301841B950BE817F90708F09D
:1045E00055C0F0932A07E0932907F901718360838E
:1045F000A0CF8D919C91119712966C901297139663
:104600007C901397A815B90559F56C0142E0C40ECA
:10461000D11CCA14DB0420F1AC014A195B09DA0190
:104620001296159780F06282738251834083D9017C
:104630006D937C93E114F10471F0D7011396FC9310
:10464000EE93129776CF22968C0F9D1FF9019183DE
:104650008083F301EFCFF0932C07E0932B0769CF12
:104660004816590608F42C017D01D3019ACFCB01DD
:104670000E94A7207C01009749F0AE01B8010E947A
:104680004923C8010E944321870153CF10E000E075
:1046900050CFFB01DC0102C001900D92415050400F
:1046A000D8F70895FB01DC0101900D920020E1F79D
:0646B0000895F894FFCF0D
:1046B600FFFFFFFF00E10000000000001001000006
:1046C6002D07800000C1808100000000000000C3AB
:1046D6000C9C0DE40CD90C2A0DE80C060D0000000C
:1046E600005C108D0CAF13AE1353746172740048E6
:1046F6006F7720746F20706C6179005365747469EC
:104706006E6773004C6576656C3A2000536F6C7665
:10471600656420696E2000206D6F76657321004701
:10472600616D6520697320636F6D706C6574656477
:10473600210045786974206C6576656C3F00596583
:10474600732841292020204E6F284229004D6F767C
:1047560065733A200053656C656374206C657665F5
:104766006C004C6576656C20004D6F766573200095
:104776004C6576656C206973206C6F636B6564218C
:1047860000417564696F204F6E00417564696F2042
:104796004F66660052657365742067616D650043F8
:1047A600726564697473004261636B005265736578
:1047B600742067616D653F00596573284129202083
:1047C6004E6F28422900437265646974733A20006B
:1047D600646172656B627820403230323100763126
:1047E6002E310047616D65207761732072657365B0
:0447F600742E00001D
:00000001FF
